{
  "_format": "hh-sol-artifact-1",
  "contractName": "ClioRegistry",
  "sourceName": "contracts/ClioRegistry.sol",
  "abi": [
    {
      "inputs": [],
      "stateMutability": "nonpayable",
      "type": "constructor"
    },
    {
      "anonymous": false,
      "inputs": [
        {
          "indexed": true,
          "internalType": "uint256",
          "name": "artistId",
          "type": "uint256"
        },
        {
          "indexed": false,
          "internalType": "address",
          "name": "artistWallet",
          "type": "address"
        },
        {
          "indexed": false,
          "internalType": "string",
          "name": "name",
          "type": "string"
        },
        {
          "indexed": false,
          "internalType": "string",
          "name": "handle",
          "type": "string"
        }
      ],
      "name": "ArtistRegistered",
      "type": "event"
    },
    {
      "anonymous": false,
      "inputs": [
        {
          "indexed": true,
          "internalType": "uint256",
          "name": "artistId",
          "type": "uint256"
        },
        {
          "indexed": false,
          "internalType": "address",
          "name": "token",
          "type": "address"
        }
      ],
      "name": "ArtistTokenSet",
      "type": "event"
    },
    {
      "anonymous": false,
      "inputs": [
        {
          "indexed": true,
          "internalType": "address",
          "name": "market",
          "type": "address"
        }
      ],
      "name": "MarketSet",
      "type": "event"
    },
    {
      "anonymous": false,
      "inputs": [
        {
          "indexed": true,
          "internalType": "address",
          "name": "newOwner",
          "type": "address"
        }
      ],
      "name": "OwnerSet",
      "type": "event"
    },
    {
      "anonymous": false,
      "inputs": [
        {
          "indexed": true,
          "internalType": "address",
          "name": "factory",
          "type": "address"
        }
      ],
      "name": "TokenFactorySet",
      "type": "event"
    },
    {
      "inputs": [
        {
          "internalType": "uint256",
          "name": "",
          "type": "uint256"
        }
      ],
      "name": "artists",
      "outputs": [
        {
          "internalType": "address",
          "name": "artistWallet",
          "type": "address"
        },
        {
          "internalType": "address",
          "name": "token",
          "type": "address"
        },
        {
          "internalType": "string",
          "name": "name",
          "type": "string"
        },
        {
          "internalType": "string",
          "name": "handle",
          "type": "string"
        },
        {
          "internalType": "bool",
          "name": "active",
          "type": "bool"
        }
      ],
      "stateMutability": "view",
      "type": "function"
    },
    {
      "inputs": [],
      "name": "market",
      "outputs": [
        {
          "internalType": "address",
          "name": "",
          "type": "address"
        }
      ],
      "stateMutability": "view",
      "type": "function"
    },
    {
      "inputs": [],
      "name": "nextArtistId",
      "outputs": [
        {
          "internalType": "uint256",
          "name": "",
          "type": "uint256"
        }
      ],
      "stateMutability": "view",
      "type": "function"
    },
    {
      "inputs": [],
      "name": "owner",
      "outputs": [
        {
          "internalType": "address",
          "name": "",
          "type": "address"
        }
      ],
      "stateMutability": "view",
      "type": "function"
    },
    {
      "inputs": [
        {
          "internalType": "address",
          "name": "artistWallet",
          "type": "address"
        },
        {
          "internalType": "string",
          "name": "name",
          "type": "string"
        },
        {
          "internalType": "string",
          "name": "handle",
          "type": "string"
        }
      ],
      "name": "registerArtist",
      "outputs": [
        {
          "internalType": "uint256",
          "name": "artistId",
          "type": "uint256"
        }
      ],
      "stateMutability": "nonpayable",
      "type": "function"
    },
    {
      "inputs": [
        {
          "internalType": "uint256",
          "name": "artistId",
          "type": "uint256"
        },
        {
          "internalType": "address",
          "name": "token",
          "type": "address"
        }
      ],
      "name": "setArtistToken",
      "outputs": [],
      "stateMutability": "nonpayable",
      "type": "function"
    },
    {
      "inputs": [
        {
          "internalType": "address",
          "name": "_market",
          "type": "address"
        }
      ],
      "name": "setMarket",
      "outputs": [],
      "stateMutability": "nonpayable",
      "type": "function"
    },
    {
      "inputs": [
        {
          "internalType": "address",
          "name": "_owner",
          "type": "address"
        }
      ],
      "name": "setOwner",
      "outputs": [],
      "stateMutability": "nonpayable",
      "type": "function"
    },
    {
      "inputs": [
        {
          "internalType": "address",
          "name": "_factory",
          "type": "address"
        }
      ],
      "name": "setTokenFactory",
      "outputs": [],
      "stateMutability": "nonpayable",
      "type": "function"
    },
    {
      "inputs": [],
      "name": "tokenFactory",
      "outputs": [
        {
          "internalType": "address",
          "name": "",
          "type": "address"
        }
      ],
      "stateMutability": "view",
      "type": "function"
    },
    {
      "inputs": [
        {
          "internalType": "address",
          "name": "",
          "type": "address"
        }
      ],
      "name": "tokenToArtistId",
      "outputs": [
        {
          "internalType": "uint256",
          "name": "",
          "type": "uint256"
        }
      ],
      "stateMutability": "view",
      "type": "function"
    }
  ],
  "bytecode": "0x608060405234801561001057600080fd5b50600380546001600160a01b031916339081179091556040517f50146d0e3c60aa1d17a70635b05494f864e86144a2201275021014fbf08bafe290600090a2610d5a8061005e6000396000f3fe608060405234801561001057600080fd5b50600436106100a95760003560e01c80636dcea85f116100715780636dcea85f1461012557806380f55605146101385780638da5cb5b1461016357806393bb5e6f14610176578063cd7e10c114610189578063e77772fe146101ad57600080fd5b806313af4035146100ae57806315fb5117146100c35780632f73a9f8146100d65780632fd0f12a146100e95780635ba1c48714610105575b600080fd5b6100c16100bc366004610924565b6101c0565b005b6100c16100d1366004610946565b610293565b6100c16100e4366004610924565b61046b565b6100f260005481565b6040519081526020015b60405180910390f35b6100f2610113366004610924565b60026020526000908152604090205481565b6100c1610133366004610924565b610535565b60055461014b906001600160a01b031681565b6040516001600160a01b0390911681526020016100fc565b60035461014b906001600160a01b031681565b6100f2610184366004610a15565b6105ff565b61019c610197366004610a89565b6107b7565b6040516100fc959493929190610ae8565b60045461014b906001600160a01b031681565b6003546001600160a01b031633146101f35760405162461bcd60e51b81526004016101ea90610b3b565b60405180910390fd5b6001600160a01b0381166102495760405162461bcd60e51b815260206004820152601860248201527f436c696f52656769737472793a207a65726f206f776e6572000000000000000060448201526064016101ea565b600380546001600160a01b0319166001600160a01b0383169081179091556040517f50146d0e3c60aa1d17a70635b05494f864e86144a2201275021014fbf08bafe290600090a250565b6004546001600160a01b031633146102e95760405162461bcd60e51b8152602060048201526019602482015278436c696f52656769737472793a206e6f7420666163746f727960381b60448201526064016101ea565b600082815260016020526040902080546001600160a01b031661034e5760405162461bcd60e51b815260206004820152601c60248201527f436c696f52656769737472793a20696e76616c6964206172746973740000000060448201526064016101ea565b60018101546001600160a01b0316156103a95760405162461bcd60e51b815260206004820152601f60248201527f436c696f52656769737472793a20746f6b656e20616c7265616479207365740060448201526064016101ea565b6001600160a01b0382166103ff5760405162461bcd60e51b815260206004820152601860248201527f436c696f52656769737472793a207a65726f20746f6b656e000000000000000060448201526064016101ea565b6001810180546001600160a01b0319166001600160a01b038416908117909155600081815260026020908152604091829020869055905191825284917fb01226735abb92ee2578b619a63014aff4bceeec45b942af9e93d7d0f318bdf7910160405180910390a2505050565b6003546001600160a01b031633146104955760405162461bcd60e51b81526004016101ea90610b3b565b6001600160a01b0381166104eb5760405162461bcd60e51b815260206004820152601a60248201527f436c696f52656769737472793a207a65726f20666163746f727900000000000060448201526064016101ea565b600480546001600160a01b0319166001600160a01b0383169081179091556040517fcf4be1c851767114c1f4b298dc84eab48d103473908393f6d408c82ba7cda0e890600090a250565b6003546001600160a01b0316331461055f5760405162461bcd60e51b81526004016101ea90610b3b565b6001600160a01b0381166105b55760405162461bcd60e51b815260206004820152601960248201527f436c696f52656769737472793a207a65726f206d61726b65740000000000000060448201526064016101ea565b600580546001600160a01b0319166001600160a01b0383169081179091556040517fe307206b150a74b2a5d43a35703be791342ca123c12a507c5f679cf1d011d1b990600090a250565b6004546000906001600160a01b031633146106585760405162461bcd60e51b8152602060048201526019602482015278436c696f52656769737472793a206e6f7420666163746f727960381b60448201526064016101ea565b6001600160a01b0384166106ae5760405162461bcd60e51b815260206004820152601960248201527f436c696f52656769737472793a207a65726f2077616c6c65740000000000000060448201526064016101ea565b6000805490806106bd83610b72565b909155506040805160a0810182526001600160a01b038088168252600060208084018281528486018a8152606086018a90526001608087018190528885529283905295909220845181549085166001600160a01b03199182161782559251918101805492909416919092161790915591519293509160028201906107419082610c24565b50606082015160038201906107569082610c24565b50608091909101516004909101805460ff191691151591909117905560405181907f4d5335f250ca609809ec654363d9e9df7071c2a1afedd5e2bf4f66dce7d7cada906107a890879087908790610ce4565b60405180910390a29392505050565b60016020819052600091825260409091208054918101546002820180546001600160a01b039485169490921692916107ee90610b99565b80601f016020809104026020016040519081016040528092919081815260200182805461081a90610b99565b80156108675780601f1061083c57610100808354040283529160200191610867565b820191906000526020600020905b81548152906001019060200180831161084a57829003601f168201915b50505050509080600301805461087c90610b99565b80601f01602080910402602001604051908101604052809291908181526020018280546108a890610b99565b80156108f55780601f106108ca576101008083540402835291602001916108f5565b820191906000526020600020905b8154815290600101906020018083116108d857829003601f168201915b5050506004909301549192505060ff1685565b80356001600160a01b038116811461091f57600080fd5b919050565b60006020828403121561093657600080fd5b61093f82610908565b9392505050565b6000806040838503121561095957600080fd5b8235915061096960208401610908565b90509250929050565b634e487b7160e01b600052604160045260246000fd5b600082601f83011261099957600080fd5b813567ffffffffffffffff808211156109b4576109b4610972565b604051601f8301601f19908116603f011681019082821181831017156109dc576109dc610972565b816040528381528660208588010111156109f557600080fd5b836020870160208301376000602085830101528094505050505092915050565b600080600060608486031215610a2a57600080fd5b610a3384610908565b9250602084013567ffffffffffffffff80821115610a5057600080fd5b610a5c87838801610988565b93506040860135915080821115610a7257600080fd5b50610a7f86828701610988565b9150509250925092565b600060208284031215610a9b57600080fd5b5035919050565b6000815180845260005b81811015610ac857602081850181015186830182015201610aac565b506000602082860101526020601f19601f83011685010191505092915050565b6001600160a01b0386811682528516602082015260a060408201819052600090610b1490830186610aa2565b8281036060840152610b268186610aa2565b91505082151560808301529695505050505050565b60208082526017908201527f436c696f52656769737472793a206e6f74206f776e6572000000000000000000604082015260600190565b600060018201610b9257634e487b7160e01b600052601160045260246000fd5b5060010190565b600181811c90821680610bad57607f821691505b602082108103610bcd57634e487b7160e01b600052602260045260246000fd5b50919050565b601f821115610c1f576000816000526020600020601f850160051c81016020861015610bfc5750805b601f850160051c820191505b81811015610c1b57828155600101610c08565b5050505b505050565b815167ffffffffffffffff811115610c3e57610c3e610972565b610c5281610c4c8454610b99565b84610bd3565b602080601f831160018114610c875760008415610c6f5750858301515b600019600386901b1c1916600185901b178555610c1b565b600085815260208120601f198616915b82811015610cb657888601518255948401946001909101908401610c97565b5085821015610cd45787850151600019600388901b60f8161c191681555b5050505050600190811b01905550565b6001600160a01b0384168152606060208201819052600090610d0890830185610aa2565b8281036040840152610d1a8185610aa2565b969550505050505056fea26469706673582212201354e359037c2b5a8f194e2b8d25a8a192f97fd031f70ea9d19cdb5a064b31da64736f6c63430008180033",
  "linkReferences": {},
  "deployedLinkReferences": {}
}