{
  "_format": "hh-sol-artifact-1",
  "contractName": "ClioMarket",
  "sourceName": "contracts/ClioMarket.sol",
  "abi": [
    {
      "inputs": [
        {
          "internalType": "address",
          "name": "_registry",
          "type": "address"
        },
        {
          "internalType": "address",
          "name": "_usdc",
          "type": "address"
        }
      ],
      "stateMutability": "nonpayable",
      "type": "constructor"
    },
    {
      "inputs": [],
      "name": "ReentrancyGuardReentrantCall",
      "type": "error"
    },
    {
      "inputs": [
        {
          "internalType": "address",
          "name": "token",
          "type": "address"
        }
      ],
      "name": "SafeERC20FailedOperation",
      "type": "error"
    },
    {
      "anonymous": false,
      "inputs": [
        {
          "indexed": true,
          "internalType": "uint256",
          "name": "artistId",
          "type": "uint256"
        },
        {
          "indexed": true,
          "internalType": "address",
          "name": "buyer",
          "type": "address"
        },
        {
          "indexed": false,
          "internalType": "uint256",
          "name": "tokensOut",
          "type": "uint256"
        },
        {
          "indexed": false,
          "internalType": "uint256",
          "name": "usdcIn",
          "type": "uint256"
        },
        {
          "indexed": false,
          "internalType": "uint256",
          "name": "fee",
          "type": "uint256"
        },
        {
          "indexed": false,
          "internalType": "uint256",
          "name": "newPriceWad",
          "type": "uint256"
        },
        {
          "indexed": false,
          "internalType": "uint256",
          "name": "newSupply",
          "type": "uint256"
        }
      ],
      "name": "Bought",
      "type": "event"
    },
    {
      "anonymous": false,
      "inputs": [
        {
          "indexed": true,
          "internalType": "address",
          "name": "newAdmin",
          "type": "address"
        }
      ],
      "name": "CurveAdminSet",
      "type": "event"
    },
    {
      "anonymous": false,
      "inputs": [
        {
          "indexed": true,
          "internalType": "uint256",
          "name": "artistId",
          "type": "uint256"
        },
        {
          "indexed": false,
          "internalType": "uint256",
          "name": "basePriceWad",
          "type": "uint256"
        },
        {
          "indexed": false,
          "internalType": "uint256",
          "name": "slopeWad",
          "type": "uint256"
        },
        {
          "indexed": false,
          "internalType": "uint16",
          "name": "feeBps",
          "type": "uint16"
        }
      ],
      "name": "CurveInitialized",
      "type": "event"
    },
    {
      "anonymous": false,
      "inputs": [
        {
          "indexed": true,
          "internalType": "address",
          "name": "newOwner",
          "type": "address"
        }
      ],
      "name": "OwnerSet",
      "type": "event"
    },
    {
      "anonymous": false,
      "inputs": [
        {
          "indexed": true,
          "internalType": "uint256",
          "name": "artistId",
          "type": "uint256"
        },
        {
          "indexed": true,
          "internalType": "address",
          "name": "seller",
          "type": "address"
        },
        {
          "indexed": false,
          "internalType": "uint256",
          "name": "tokensIn",
          "type": "uint256"
        },
        {
          "indexed": false,
          "internalType": "uint256",
          "name": "usdcOut",
          "type": "uint256"
        },
        {
          "indexed": false,
          "internalType": "uint256",
          "name": "fee",
          "type": "uint256"
        },
        {
          "indexed": false,
          "internalType": "uint256",
          "name": "newPriceWad",
          "type": "uint256"
        },
        {
          "indexed": false,
          "internalType": "uint256",
          "name": "newSupply",
          "type": "uint256"
        }
      ],
      "name": "Sold",
      "type": "event"
    },
    {
      "inputs": [
        {
          "internalType": "uint256",
          "name": "artistId",
          "type": "uint256"
        },
        {
          "internalType": "uint256",
          "name": "tokenAmount",
          "type": "uint256"
        },
        {
          "internalType": "uint256",
          "name": "maxUsdcIn",
          "type": "uint256"
        }
      ],
      "name": "buy",
      "outputs": [],
      "stateMutability": "nonpayable",
      "type": "function"
    },
    {
      "inputs": [
        {
          "internalType": "uint256",
          "name": "artistId",
          "type": "uint256"
        }
      ],
      "name": "currentPrice",
      "outputs": [
        {
          "internalType": "uint256",
          "name": "",
          "type": "uint256"
        }
      ],
      "stateMutability": "view",
      "type": "function"
    },
    {
      "inputs": [],
      "name": "curveAdmin",
      "outputs": [
        {
          "internalType": "address",
          "name": "",
          "type": "address"
        }
      ],
      "stateMutability": "view",
      "type": "function"
    },
    {
      "inputs": [
        {
          "internalType": "uint256",
          "name": "",
          "type": "uint256"
        }
      ],
      "name": "curves",
      "outputs": [
        {
          "internalType": "uint256",
          "name": "basePriceWad",
          "type": "uint256"
        },
        {
          "internalType": "uint256",
          "name": "slopeWad",
          "type": "uint256"
        },
        {
          "internalType": "uint16",
          "name": "artistFeeBps",
          "type": "uint16"
        },
        {
          "internalType": "bool",
          "name": "initialized",
          "type": "bool"
        }
      ],
      "stateMutability": "view",
      "type": "function"
    },
    {
      "inputs": [
        {
          "internalType": "uint256",
          "name": "artistId",
          "type": "uint256"
        },
        {
          "internalType": "uint256",
          "name": "basePriceWad",
          "type": "uint256"
        },
        {
          "internalType": "uint256",
          "name": "slopeWad",
          "type": "uint256"
        },
        {
          "internalType": "uint16",
          "name": "artistFeeBps",
          "type": "uint16"
        }
      ],
      "name": "initCurve",
      "outputs": [],
      "stateMutability": "nonpayable",
      "type": "function"
    },
    {
      "inputs": [],
      "name": "owner",
      "outputs": [
        {
          "internalType": "address",
          "name": "",
          "type": "address"
        }
      ],
      "stateMutability": "view",
      "type": "function"
    },
    {
      "inputs": [
        {
          "internalType": "uint256",
          "name": "artistId",
          "type": "uint256"
        },
        {
          "internalType": "uint256",
          "name": "tokensOut",
          "type": "uint256"
        }
      ],
      "name": "quoteBuy",
      "outputs": [
        {
          "internalType": "uint256",
          "name": "usdcIn",
          "type": "uint256"
        },
        {
          "internalType": "uint256",
          "name": "fee",
          "type": "uint256"
        },
        {
          "internalType": "uint256",
          "name": "newPriceWad",
          "type": "uint256"
        }
      ],
      "stateMutability": "view",
      "type": "function"
    },
    {
      "inputs": [
        {
          "internalType": "uint256",
          "name": "artistId",
          "type": "uint256"
        },
        {
          "internalType": "uint256",
          "name": "tokensIn",
          "type": "uint256"
        }
      ],
      "name": "quoteSell",
      "outputs": [
        {
          "internalType": "uint256",
          "name": "usdcOut",
          "type": "uint256"
        },
        {
          "internalType": "uint256",
          "name": "fee",
          "type": "uint256"
        },
        {
          "internalType": "uint256",
          "name": "newPriceWad",
          "type": "uint256"
        }
      ],
      "stateMutability": "view",
      "type": "function"
    },
    {
      "inputs": [],
      "name": "registry",
      "outputs": [
        {
          "internalType": "contract ClioRegistry",
          "name": "",
          "type": "address"
        }
      ],
      "stateMutability": "view",
      "type": "function"
    },
    {
      "inputs": [
        {
          "internalType": "uint256",
          "name": "",
          "type": "uint256"
        }
      ],
      "name": "reserves",
      "outputs": [
        {
          "internalType": "uint256",
          "name": "",
          "type": "uint256"
        }
      ],
      "stateMutability": "view",
      "type": "function"
    },
    {
      "inputs": [
        {
          "internalType": "uint256",
          "name": "artistId",
          "type": "uint256"
        },
        {
          "internalType": "uint256",
          "name": "tokenAmount",
          "type": "uint256"
        },
        {
          "internalType": "uint256",
          "name": "minUsdcOut",
          "type": "uint256"
        }
      ],
      "name": "sell",
      "outputs": [],
      "stateMutability": "nonpayable",
      "type": "function"
    },
    {
      "inputs": [
        {
          "internalType": "address",
          "name": "_admin",
          "type": "address"
        }
      ],
      "name": "setCurveAdmin",
      "outputs": [],
      "stateMutability": "nonpayable",
      "type": "function"
    },
    {
      "inputs": [
        {
          "internalType": "address",
          "name": "_owner",
          "type": "address"
        }
      ],
      "name": "setOwner",
      "outputs": [],
      "stateMutability": "nonpayable",
      "type": "function"
    },
    {
      "inputs": [],
      "name": "usdc",
      "outputs": [
        {
          "internalType": "contract IERC20",
          "name": "",
          "type": "address"
        }
      ],
      "stateMutability": "view",
      "type": "function"
    }
  ],
  "bytecode": "0x60a06040523480156200001157600080fd5b50604051620019063803806200190683398101604081905262000034916200016d565b60016000556001600160a01b038216620000955760405162461bcd60e51b815260206004820152601960248201527f436c696f4d61726b65743a207a65726f2072656769737472790000000000000060448201526064015b60405180910390fd5b6001600160a01b038116620000ed5760405162461bcd60e51b815260206004820152601560248201527f436c696f4d61726b65743a207a65726f2075736463000000000000000000000060448201526064016200008c565b600280546001600160a01b031990811633908117909255600180546001600160a01b038681169190931617905582166080526040517f50146d0e3c60aa1d17a70635b05494f864e86144a2201275021014fbf08bafe290600090a25050620001a5565b80516001600160a01b03811681146200016857600080fd5b919050565b600080604083850312156200018157600080fd5b6200018c8362000150565b91506200019c6020840162000150565b90509250929050565b608051611729620001dd600039600081816101a6015281816105b7015281816105f201528181610c5c0152610c9001526117296000f3fe608060405234801561001057600080fd5b50600436106100ea5760003560e01c80637a3c4c171161008c5780638da5cb5b116100665780638da5cb5b1461026d578063d3c9727c14610280578063e85318f314610293578063f998a865146102a657600080fd5b80637a3c4c17146102195780637b1039991461023a5780638334278d1461024d57600080fd5b80633e413bee116100c85780633e413bee146101a157806340993b26146101e0578063466e8e39146101f35780635e7f25e01461020657600080fd5b80630277dd67146100ef57806313af4035146101225780631bf7d74914610137575b600080fd5b6101026100fd3660046113d0565b6102b9565b604080519384526020840192909252908201526060015b60405180910390f35b61013561013036600461140a565b610448565b005b610175610145366004611427565b60046020526000908152604090208054600182015460029092015490919061ffff81169062010000900460ff1684565b6040516101199493929190938452602084019290925261ffff1660408301521515606082015260800190565b6101c87f000000000000000000000000000000000000000000000000000000000000000081565b6040516001600160a01b039091168152602001610119565b6101356101ee366004611440565b610533565b61013561020136600461146c565b610778565b61013561021436600461140a565b61095f565b61022c610227366004611427565b610a4a565b604051908152602001610119565b6001546101c8906001600160a01b031681565b61022c61025b366004611427565b60056020526000908152604090205481565b6002546101c8906001600160a01b031681565b61013561028e366004611440565b610ae0565b6003546101c8906001600160a01b031681565b6101026102b43660046113d0565b610d85565b600080600080841161030a5760405162461bcd60e51b815260206004820152601560248201527410db1a5bd3585c9ad95d0e881e995c9bc81cd95b1b605a1b60448201526064015b60405180910390fd5b6000858152600460209081526040918290208251608081018452815481526001820154928101929092526002015461ffff8116928201929092526201000090910460ff161515606082018190526103735760405162461bcd60e51b8152600401610301906114b4565b600061037e87610eac565b50915050600061038d82611014565b9050808711156103d65760405162461bcd60e51b8152602060048201526014602482015273436c696f4d61726b65743a203e20737570706c7960601b6044820152606401610301565b60006103e382898661107e565b905060006103f082611114565b9050612710856040015161ffff16826104099190611501565b610413919061152e565b965061041f8782611550565b9750600061042d8a85611550565b90506104398187611125565b96505050505050509250925092565b6002546001600160a01b0316331461049a5760405162461bcd60e51b815260206004820152601560248201527421b634b7a6b0b935b2ba1d103737ba1037bbb732b960591b6044820152606401610301565b6001600160a01b0381166104e95760405162461bcd60e51b815260206004820152601660248201527521b634b7a6b0b935b2ba1d103d32b9379037bbb732b960511b6044820152606401610301565b600280546001600160a01b0319166001600160a01b0383169081179091556040517f50146d0e3c60aa1d17a70635b05494f864e86144a2201275021014fbf08bafe290600090a250565b61053b61114a565b600080600061054a8686610d85565b925092509250838311156105975760405162461bcd60e51b8152602060048201526014602482015273436c696f4d61726b65743a20736c69707061676560601b6044820152606401610301565b6000806105a388610eac565b509092509050806105df6001600160a01b037f000000000000000000000000000000000000000000000000000000000000000016333089611174565b8415610619576106196001600160a01b037f00000000000000000000000000000000000000000000000000000000000000001684876111e1565b6106238587611550565b60008a81526005602052604081208054909190610641908490611563565b90915550506040516340c10f1960e01b8152336004820152602481018990526001600160a01b038216906340c10f1990604401600060405180830381600087803b15801561068e57600080fd5b505af11580156106a2573d6000803e3d6000fd5b50505050336001600160a01b0316897fb5af3a6a3678c7d32fd2eb4acc0fb8d3a4bc53d756500c2a66708f7efbdcc1ed8a898989876001600160a01b03166318160ddd6040518163ffffffff1660e01b8152600401602060405180830381865afa158015610714573d6000803e3d6000fd5b505050506040513d601f19601f820116820180604052508101906107389190611576565b604080519586526020860194909452928401919091526060830152608082015260a00160405180910390a35050505050506107736001600055565b505050565b6002546001600160a01b031633148061079b57506003546001600160a01b031633145b6107e75760405162461bcd60e51b815260206004820152601b60248201527f436c696f4d61726b65743a206e6f742063757276652061646d696e00000000006044820152606401610301565b6000848152600460205260409020600281015462010000900460ff16156108505760405162461bcd60e51b815260206004820152601860248201527f436c696f4d61726b65743a20616c726561647920696e697400000000000000006044820152606401610301565b600084116108985760405162461bcd60e51b8152602060048201526015602482015274436c696f4d61726b65743a207a65726f206261736560581b6044820152606401610301565b6113888261ffff1611156108ee5760405162461bcd60e51b815260206004820152601860248201527f436c696f4d61726b65743a2066656520746f6f206869676800000000000000006044820152606401610301565b8381556001810183905560028101805462ffffff191661ffff8416908117620100001790915560408051868152602081018690529081019190915285907f5dbf95491b19e159c56f02dc7f1b74d7432620c377d2e5ac290787c5cc3a52c49060600160405180910390a25050505050565b6002546001600160a01b031633146109b15760405162461bcd60e51b815260206004820152601560248201527421b634b7a6b0b935b2ba1d103737ba1037bbb732b960591b6044820152606401610301565b6001600160a01b038116610a005760405162461bcd60e51b815260206004820152601660248201527521b634b7a6b0b935b2ba1d103d32b9379030b236b4b760511b6044820152606401610301565b600380546001600160a01b0319166001600160a01b0383169081179091556040517f6fa4138f95fdc4a31ab685c00cd93d745cc742397d13a5983873d2675af0c63390600090a250565b60008181526004602090815260408083208151608081018352815481526001820154938101939093526002015461ffff81169183019190915262010000900460ff16151560608201819052610ab15760405162461bcd60e51b8152600401610301906114b4565b6000610abc84610eac565b509150506000610acb82611014565b9050610ad78184611125565b95945050505050565b610ae861114a565b6000806000610af786866102b9565b92509250925083831015610b445760405162461bcd60e51b8152602060048201526014602482015273436c696f4d61726b65743a20736c69707061676560601b6044820152606401610301565b600080610b5088610eac565b509092509050806000610b638688611563565b60008b815260056020526040902054909150811115610bc45760405162461bcd60e51b815260206004820152601760248201527f436c696f4d61726b65743a2072657365727665206c6f770000000000000000006044820152606401610301565b604051632770a7eb60e21b8152336004820152602481018a90526001600160a01b03831690639dc29fac90604401600060405180830381600087803b158015610c0c57600080fd5b505af1158015610c20573d6000803e3d6000fd5b50505060008b81526005602052604081208054849350909190610c44908490611550565b90915550508515610c8357610c836001600160a01b037f00000000000000000000000000000000000000000000000000000000000000001685886111e1565b610cb76001600160a01b037f00000000000000000000000000000000000000000000000000000000000000001633896111e1565b336001600160a01b03168a7f4d5737b497ed2af6ba96b2b26e741cc1ede48fa0ee98485f2aefb83a4b0cdc768b8a8a8a886001600160a01b03166318160ddd6040518163ffffffff1660e01b8152600401602060405180830381865afa158015610d25573d6000803e3d6000fd5b505050506040513d601f19601f82011682018060405250810190610d499190611576565b604080519586526020860194909452928401919091526060830152608082015260a00160405180910390a3505050505050506107736001600055565b6000806000808411610dd05760405162461bcd60e51b8152602060048201526014602482015273436c696f4d61726b65743a207a65726f2062757960601b6044820152606401610301565b6000858152600460209081526040918290208251608081018452815481526001820154928101929092526002015461ffff8116928201929092526201000090910460ff16151560608201819052610e395760405162461bcd60e51b8152600401610301906114b4565b6000610e4487610eac565b509150506000610e5382611014565b90506000610e62828986611212565b90506000610e6f82611252565b9050612710856040015161ffff1682610e889190611501565b610e92919061152e565b9650610e9e8782611563565b9750600061042d8a85611563565b60015460405163cd7e10c160e01b815260048101839052600091829182916001600160a01b03169063cd7e10c190602401600060405180830381865afa158015610efa573d6000803e3d6000fd5b505050506040513d6000823e601f3d908101601f19168201604052610f22919081019061164e565b939650919450919250506001600160a01b0383169050610f7b5760405162461bcd60e51b815260206004820152601460248201527321b634b7a6b0b935b2ba1d103737903a37b5b2b760611b6044820152606401610301565b6001600160a01b038316610fc95760405162461bcd60e51b815260206004820152601560248201527410db1a5bd3585c9ad95d0e881b9bc81dd85b1b195d605a1b6044820152606401610301565b8061100d5760405162461bcd60e51b8152602060048201526014602482015273436c696f4d61726b65743a20696e61637469766560601b6044820152606401610301565b9193909250565b6000816001600160a01b03166318160ddd6040518163ffffffff1660e01b8152600401602060405180830381865afa158015611054573d6000803e3d6000fd5b505050506040513d601f19601f820116820180604052508101906110789190611576565b92915050565b600080611098836000015185670de0b6b3a764000061127a565b905060006110a68587611550565b905060006110b48280611501565b6110be8880611501565b6110c89190611550565b905060006110fa866020015183670de0b6b3a76400008060026110eb9190611501565b6110f59190611501565b61127a565b90506111068185611563565b9450505050505b9392505050565b600061107864e8d4a510008361152e565b600061113e826020015184670de0b6b3a764000061127a565b825161110d9190611563565b60026000540361116d57604051633ee5aeb560e01b815260040160405180910390fd5b6002600055565b6040516001600160a01b0384811660248301528381166044830152606482018390526111db9186918216906323b872dd906084015b604051602081830303815290604052915060e01b6020820180516001600160e01b03838183161783525050505061132f565b50505050565b6040516001600160a01b0383811660248301526044820183905261077391859182169063a9059cbb906064016111a9565b60008061122c836000015185670de0b6b3a764000061127a565b9050600061123a8587611563565b905060006112488780611501565b6110be8380611501565b600064e8d4a5100060016112668285611563565b6112709190611550565b611078919061152e565b600080600061128986866113a0565b91509150816000036112ae578381816112a4576112a4611518565b049250505061110d565b8184116112c5576112c560038515026011186113be565b6000848688096000868103871696879004966002600389028118808a02820302808a02820302808a02820302808a02820302808a02820302808a02909103029181900381900460010185841190960395909502919093039390930492909217029150509392505050565b600080602060008451602086016000885af180611352576040513d6000823e3d81fd5b50506000513d9150811561136a578060011415611377565b6001600160a01b0384163b155b156111db57604051635274afe760e01b81526001600160a01b0385166004820152602401610301565b60008060001983850993909202808410938190039390930393915050565b634e487b71600052806020526024601cfd5b600080604083850312156113e357600080fd5b50508035926020909101359150565b6001600160a01b038116811461140757600080fd5b50565b60006020828403121561141c57600080fd5b813561110d816113f2565b60006020828403121561143957600080fd5b5035919050565b60008060006060848603121561145557600080fd5b505081359360208301359350604090920135919050565b6000806000806080858703121561148257600080fd5b843593506020850135925060408501359150606085013561ffff811681146114a957600080fd5b939692955090935050565b6020808252601a908201527f436c696f4d61726b65743a206375727665206e6f7420696e6974000000000000604082015260600190565b634e487b7160e01b600052601160045260246000fd5b8082028115828204841417611078576110786114eb565b634e487b7160e01b600052601260045260246000fd5b60008261154b57634e487b7160e01b600052601260045260246000fd5b500490565b81810381811115611078576110786114eb565b80820180821115611078576110786114eb565b60006020828403121561158857600080fd5b5051919050565b634e487b7160e01b600052604160045260246000fd5b600082601f8301126115b657600080fd5b815167ffffffffffffffff808211156115d1576115d161158f565b604051601f8301601f19908116603f011681019082821181831017156115f9576115f961158f565b816040528381526020925086602085880101111561161657600080fd5b600091505b83821015611638578582018301518183018401529082019061161b565b6000602085830101528094505050505092915050565b600080600080600060a0868803121561166657600080fd5b8551611671816113f2565b6020870151909550611682816113f2565b604087015190945067ffffffffffffffff808211156116a057600080fd5b6116ac89838a016115a5565b945060608801519150808211156116c257600080fd5b506116cf888289016115a5565b925050608086015180151581146116e557600080fd5b80915050929550929590935056fea264697066735822122015b0e0e9fe48941f12f1a8be50757f7475109ab969914552cb77b1131dd6c53f64736f6c63430008180033",
  "linkReferences": {},
  "deployedLinkReferences": {}
}