{
  "_format": "hh-sol-artifact-1",
  "contractName": "ClioFactory",
  "sourceName": "contracts/ClioFactory.sol",
  "abi": [
    {
      "inputs": [
        {
          "internalType": "address",
          "name": "_registry",
          "type": "address"
        }
      ],
      "stateMutability": "nonpayable",
      "type": "constructor"
    },
    {
      "anonymous": false,
      "inputs": [
        {
          "indexed": true,
          "internalType": "uint256",
          "name": "artistId",
          "type": "uint256"
        },
        {
          "indexed": false,
          "internalType": "address",
          "name": "artistWallet",
          "type": "address"
        },
        {
          "indexed": false,
          "internalType": "address",
          "name": "token",
          "type": "address"
        }
      ],
      "name": "ArtistCreated",
      "type": "event"
    },
    {
      "inputs": [
        {
          "internalType": "address",
          "name": "artistWallet",
          "type": "address"
        },
        {
          "internalType": "string",
          "name": "name",
          "type": "string"
        },
        {
          "internalType": "string",
          "name": "handle",
          "type": "string"
        },
        {
          "internalType": "string",
          "name": "symbol",
          "type": "string"
        }
      ],
      "name": "createArtist",
      "outputs": [
        {
          "internalType": "uint256",
          "name": "artistId",
          "type": "uint256"
        },
        {
          "internalType": "address",
          "name": "token",
          "type": "address"
        }
      ],
      "stateMutability": "nonpayable",
      "type": "function"
    },
    {
      "inputs": [
        {
          "internalType": "address",
          "name": "artistWallet",
          "type": "address"
        },
        {
          "internalType": "string",
          "name": "name",
          "type": "string"
        },
        {
          "internalType": "string",
          "name": "handle",
          "type": "string"
        },
        {
          "internalType": "string",
          "name": "symbol",
          "type": "string"
        },
        {
          "internalType": "uint256",
          "name": "basePriceWad",
          "type": "uint256"
        },
        {
          "internalType": "uint256",
          "name": "slopeWad",
          "type": "uint256"
        },
        {
          "internalType": "uint16",
          "name": "artistFeeBps",
          "type": "uint16"
        }
      ],
      "name": "createArtistWithCurve",
      "outputs": [
        {
          "internalType": "uint256",
          "name": "artistId",
          "type": "uint256"
        },
        {
          "internalType": "address",
          "name": "token",
          "type": "address"
        }
      ],
      "stateMutability": "nonpayable",
      "type": "function"
    },
    {
      "inputs": [],
      "name": "market",
      "outputs": [
        {
          "internalType": "address",
          "name": "",
          "type": "address"
        }
      ],
      "stateMutability": "view",
      "type": "function"
    },
    {
      "inputs": [],
      "name": "owner",
      "outputs": [
        {
          "internalType": "address",
          "name": "",
          "type": "address"
        }
      ],
      "stateMutability": "view",
      "type": "function"
    },
    {
      "inputs": [],
      "name": "registry",
      "outputs": [
        {
          "internalType": "contract ClioRegistry",
          "name": "",
          "type": "address"
        }
      ],
      "stateMutability": "view",
      "type": "function"
    },
    {
      "inputs": [
        {
          "internalType": "address",
          "name": "_market",
          "type": "address"
        }
      ],
      "name": "setMarket",
      "outputs": [],
      "stateMutability": "nonpayable",
      "type": "function"
    },
    {
      "inputs": [
        {
          "internalType": "address",
          "name": "_owner",
          "type": "address"
        }
      ],
      "name": "setOwner",
      "outputs": [],
      "stateMutability": "nonpayable",
      "type": "function"
    }
  ],
  "bytecode": "0x608060405234801561001057600080fd5b5060405161180938038061180983398101604081905261002f91610062565b60018054336001600160a01b031991821617909155600080549091166001600160a01b0392909216919091179055610092565b60006020828403121561007457600080fd5b81516001600160a01b038116811461008b57600080fd5b9392505050565b611768806100a16000396000f3fe60806040523480156200001157600080fd5b5060043610620000875760003560e01c80636dcea85f11620000625780636dcea85f14620000f55780637b103999146200010c57806380f5560514620001395780638da5cb5b146200014d57600080fd5b806313af4035146200008c5780631948340514620000a557806351cce05914620000de575b600080fd5b620000a36200009d366004620005d5565b62000161565b005b620000bc620000b6366004620006a5565b62000211565b604080519283526001600160a01b039091166020830152015b60405180910390f35b620000bc620000ef3660046200077a565b620002d9565b620000a362000106366004620005d5565b62000326565b60005462000120906001600160a01b031681565b6040516001600160a01b039091168152602001620000d5565b60025462000120906001600160a01b031681565b60015462000120906001600160a01b031681565b6001546001600160a01b03163314620001975760405162461bcd60e51b81526004016200018e906200081f565b60405180910390fd5b6001600160a01b038116620001ef5760405162461bcd60e51b815260206004820152601760248201527f436c696f466163746f72793a207a65726f206f776e657200000000000000000060448201526064016200018e565b600180546001600160a01b0319166001600160a01b0392909216919091179055565b60015460009081906001600160a01b03163314620002435760405162461bcd60e51b81526004016200018e906200081f565b6200025189898989620003cd565b60025460405163466e8e3960e01b815260048101849052602481018990526044810188905261ffff871660648201529294509092506001600160a01b03169063466e8e3990608401600060405180830381600087803b158015620002b457600080fd5b505af1158015620002c9573d6000803e3d6000fd5b5050505097509795505050505050565b60015460009081906001600160a01b031633146200030b5760405162461bcd60e51b81526004016200018e906200081f565b6200031986868686620003cd565b9150915094509492505050565b6001546001600160a01b03163314620003535760405162461bcd60e51b81526004016200018e906200081f565b6001600160a01b038116620003ab5760405162461bcd60e51b815260206004820152601860248201527f436c696f466163746f72793a207a65726f206d61726b6574000000000000000060448201526064016200018e565b600280546001600160a01b0319166001600160a01b0392909216919091179055565b600080546040516393bb5e6f60e01b815282916001600160a01b0316906393bb5e6f90620004049089908990899060040162000897565b6020604051808303816000875af115801562000424573d6000803e3d6000fd5b505050506040513d601f19601f820116820180604052508101906200044a9190620008db565b915060008584306040516200045f90620005aa565b6200046d93929190620008f5565b604051809103906000f0801580156200048a573d6000803e3d6000fd5b50600254604051636dcea85f60e01b81526001600160a01b039182166004820152919250821690636dcea85f90602401600060405180830381600087803b158015620004d557600080fd5b505af1158015620004ea573d6000803e3d6000fd5b50506000546040516315fb511760e01b8152600481018790526001600160a01b038086166024830152949550859490911692506315fb51179150604401600060405180830381600087803b1580156200054257600080fd5b505af115801562000557573d6000803e3d6000fd5b5050604080516001600160a01b03808c168252861660208201528693507f2bfb43f5c2ed4920d7c5d1fb0855d54d7a646834a915cee8d8eae9f985213aab92500160405180910390a25094509492505050565b610dfb806200093883390190565b80356001600160a01b0381168114620005d057600080fd5b919050565b600060208284031215620005e857600080fd5b620005f382620005b8565b9392505050565b634e487b7160e01b600052604160045260246000fd5b600082601f8301126200062257600080fd5b813567ffffffffffffffff80821115620006405762000640620005fa565b604051601f8301601f19908116603f011681019082821181831017156200066b576200066b620005fa565b816040528381528660208588010111156200068557600080fd5b836020870160208301376000602085830101528094505050505092915050565b600080600080600080600060e0888a031215620006c157600080fd5b620006cc88620005b8565b9650602088013567ffffffffffffffff80821115620006ea57600080fd5b620006f88b838c0162000610565b975060408a01359150808211156200070f57600080fd5b6200071d8b838c0162000610565b965060608a01359150808211156200073457600080fd5b50620007438a828b0162000610565b9450506080880135925060a0880135915060c088013561ffff811681146200076a57600080fd5b8091505092959891949750929550565b600080600080608085870312156200079157600080fd5b6200079c85620005b8565b9350602085013567ffffffffffffffff80821115620007ba57600080fd5b620007c88883890162000610565b94506040870135915080821115620007df57600080fd5b620007ed8883890162000610565b935060608701359150808211156200080457600080fd5b50620008138782880162000610565b91505092959194509250565b60208082526016908201527521b634b7a330b1ba37b93c9d103737ba1037bbb732b960511b604082015260600190565b6000815180845260005b81811015620008775760208185018101518683018201520162000859565b506000602082860101526020601f19601f83011685010191505092915050565b6001600160a01b0384168152606060208201819052600090620008bd908301856200084f565b8281036040840152620008d181856200084f565b9695505050505050565b600060208284031215620008ee57600080fd5b5051919050565b6060815260006200090a60608301866200084f565b82810360208401526200091e81866200084f565b91505060018060a01b038316604083015294935050505056fe60806040523480156200001157600080fd5b5060405162000dfb38038062000dfb8339810160408190526200003491620001b5565b8083836003620000458382620002d3565b506004620000548282620002d3565b5050506001600160a01b0381166200008657604051631e4fbdf760e01b81526000600482015260240160405180910390fd5b62000091816200009b565b505050506200039f565b600580546001600160a01b038381166001600160a01b0319831681179093556040519116919082907f8be0079c531659141344cd1fd0a4f28419497f9722a3daafe3b4186f6b6457e090600090a35050565b634e487b7160e01b600052604160045260246000fd5b600082601f8301126200011557600080fd5b81516001600160401b0380821115620001325762000132620000ed565b604051601f8301601f19908116603f011681019082821181831017156200015d576200015d620000ed565b81604052838152602092508660208588010111156200017b57600080fd5b600091505b838210156200019f578582018301518183018401529082019062000180565b6000602085830101528094505050505092915050565b600080600060608486031215620001cb57600080fd5b83516001600160401b0380821115620001e357600080fd5b620001f18783880162000103565b945060208601519150808211156200020857600080fd5b50620002178682870162000103565b604086015190935090506001600160a01b03811681146200023757600080fd5b809150509250925092565b600181811c908216806200025757607f821691505b6020821081036200027857634e487b7160e01b600052602260045260246000fd5b50919050565b601f821115620002ce576000816000526020600020601f850160051c81016020861015620002a95750805b601f850160051c820191505b81811015620002ca57828155600101620002b5565b5050505b505050565b81516001600160401b03811115620002ef57620002ef620000ed565b620003078162000300845462000242565b846200027e565b602080601f8311600181146200033f5760008415620003265750858301515b600019600386901b1c1916600185901b178555620002ca565b600085815260208120601f198616915b8281101562000370578886015182559484019460019091019084016200034f565b50858210156200038f5787850151600019600388901b60f8161c191681555b5050505050600190811b01905550565b610a4c80620003af6000396000f3fe608060405234801561001057600080fd5b50600436106101005760003560e01c8063715018a6116100975780639dc29fac116100665780639dc29fac14610217578063a9059cbb1461022a578063dd62ed3e1461023d578063f2fde38b1461027657600080fd5b8063715018a6146101cb57806380f55605146101d35780638da5cb5b146101fe57806395d89b411461020f57600080fd5b8063313ce567116100d3578063313ce5671461016b57806340c10f191461017a5780636dcea85f1461018f57806370a08231146101a257600080fd5b806306fdde0314610105578063095ea7b31461012357806318160ddd1461014657806323b872dd14610158575b600080fd5b61010d610289565b60405161011a9190610895565b60405180910390f35b610136610131366004610900565b61031b565b604051901515815260200161011a565b6002545b60405190815260200161011a565b61013661016636600461092a565b610335565b6040516012815260200161011a565b61018d610188366004610900565b610359565b005b61018d61019d366004610966565b610392565b61014a6101b0366004610966565b6001600160a01b031660009081526020819052604090205490565b61018d610417565b6006546101e6906001600160a01b031681565b6040516001600160a01b03909116815260200161011a565b6005546001600160a01b03166101e6565b61010d61042b565b61018d610225366004610900565b61043a565b610136610238366004610900565b61046f565b61014a61024b366004610988565b6001600160a01b03918216600090815260016020908152604080832093909416825291909152205490565b61018d610284366004610966565b61047d565b606060038054610298906109bb565b80601f01602080910402602001604051908101604052809291908181526020018280546102c4906109bb565b80156103115780601f106102e657610100808354040283529160200191610311565b820191906000526020600020905b8154815290600101906020018083116102f457829003601f168201915b5050505050905090565b6000336103298185856104bb565b60019150505b92915050565b6000336103438582856104cd565b61034e85858561054c565b506001949350505050565b6006546001600160a01b031633146103845760405163c4bbea6960e01b815260040160405180910390fd5b61038e82826105ab565b5050565b61039a6105e1565b6001600160a01b0381166103f55760405162461bcd60e51b815260206004820152601c60248201527f436c696f417274697374546f6b656e3a207a65726f206d61726b65740000000060448201526064015b60405180910390fd5b600680546001600160a01b0319166001600160a01b0392909216919091179055565b61041f6105e1565b610429600061060e565b565b606060048054610298906109bb565b6006546001600160a01b031633146104655760405163c4bbea6960e01b815260040160405180910390fd5b61038e8282610660565b60003361032981858561054c565b6104856105e1565b6001600160a01b0381166104af57604051631e4fbdf760e01b8152600060048201526024016103ec565b6104b88161060e565b50565b6104c88383836001610696565b505050565b6001600160a01b03838116600090815260016020908152604080832093861683529290522054600019811015610546578181101561053757604051637dc7a0d960e11b81526001600160a01b038416600482015260248101829052604481018390526064016103ec565b61054684848484036000610696565b50505050565b6001600160a01b03831661057657604051634b637e8f60e11b8152600060048201526024016103ec565b6001600160a01b0382166105a05760405163ec442f0560e01b8152600060048201526024016103ec565b6104c883838361076b565b6001600160a01b0382166105d55760405163ec442f0560e01b8152600060048201526024016103ec565b61038e6000838361076b565b6005546001600160a01b031633146104295760405163118cdaa760e01b81523360048201526024016103ec565b600580546001600160a01b038381166001600160a01b0319831681179093556040519116919082907f8be0079c531659141344cd1fd0a4f28419497f9722a3daafe3b4186f6b6457e090600090a35050565b6001600160a01b03821661068a57604051634b637e8f60e11b8152600060048201526024016103ec565b61038e8260008361076b565b6001600160a01b0384166106c05760405163e602df0560e01b8152600060048201526024016103ec565b6001600160a01b0383166106ea57604051634a1406b160e11b8152600060048201526024016103ec565b6001600160a01b038085166000908152600160209081526040808320938716835292905220829055801561054657826001600160a01b0316846001600160a01b03167f8c5be1e5ebec7d5bd14f71427d1e84f3dd0314c0f7b2291e5b200ac8c7c3b9258460405161075d91815260200190565b60405180910390a350505050565b6001600160a01b03831661079657806002600082825461078b91906109f5565b909155506108089050565b6001600160a01b038316600090815260208190526040902054818110156107e95760405163391434e360e21b81526001600160a01b038516600482015260248101829052604481018390526064016103ec565b6001600160a01b03841660009081526020819052604090209082900390555b6001600160a01b03821661082457600280548290039055610843565b6001600160a01b03821660009081526020819052604090208054820190555b816001600160a01b0316836001600160a01b03167fddf252ad1be2c89b69c2b068fc378daa952ba7f163c4a11628f55a4df523b3ef8360405161088891815260200190565b60405180910390a3505050565b60006020808352835180602085015260005b818110156108c3578581018301518582016040015282016108a7565b506000604082860101526040601f19601f8301168501019250505092915050565b80356001600160a01b03811681146108fb57600080fd5b919050565b6000806040838503121561091357600080fd5b61091c836108e4565b946020939093013593505050565b60008060006060848603121561093f57600080fd5b610948846108e4565b9250610956602085016108e4565b9150604084013590509250925092565b60006020828403121561097857600080fd5b610981826108e4565b9392505050565b6000806040838503121561099b57600080fd5b6109a4836108e4565b91506109b2602084016108e4565b90509250929050565b600181811c908216806109cf57607f821691505b6020821081036109ef57634e487b7160e01b600052602260045260246000fd5b50919050565b8082018082111561032f57634e487b7160e01b600052601160045260246000fdfea2646970667358221220ff5986a4e5f6f165f8da78d2ae27fbd93e8214967c8f3f585b9d957cd3f665e764736f6c63430008180033a2646970667358221220a06db0aee2639f78828cf3884f8eda9d7ea9f58e2ff302030d90cb70ac2fcc8064736f6c63430008180033",
  "linkReferences": {},
  "deployedLinkReferences": {}
}